{
  "_format": "hh-sol-artifact-1",
  "contractName": "GuardianINFT",
  "sourceName": "contracts/GuardianINFT.sol",
  "abi": [
    {
      "inputs": [
        {
          "internalType": "string",
          "name": "name_",
          "type": "string"
        },
        {
          "internalType": "string",
          "name": "symbol_",
          "type": "string"
        },
        {
          "internalType": "address",
          "name": "_oracle",
          "type": "address"
        }
      ],
      "stateMutability": "nonpayable",
      "type": "constructor"
    },
    {
      "inputs": [
        {
          "internalType": "address",
          "name": "sender",
          "type": "address"
        },
        {
          "internalType": "uint256",
          "name": "tokenId",
          "type": "uint256"
        },
        {
          "internalType": "address",
          "name": "owner",
          "type": "address"
        }
      ],
      "name": "ERC721IncorrectOwner",
      "type": "error"
    },
    {
      "inputs": [
        {
          "internalType": "address",
          "name": "operator",
          "type": "address"
        },
        {
          "internalType": "uint256",
          "name": "tokenId",
          "type": "uint256"
        }
      ],
      "name": "ERC721InsufficientApproval",
      "type": "error"
    },
    {
      "inputs": [
        {
          "internalType": "address",
          "name": "approver",
          "type": "address"
        }
      ],
      "name": "ERC721InvalidApprover",
      "type": "error"
    },
    {
      "inputs": [
        {
          "internalType": "address",
          "name": "operator",
          "type": "address"
        }
      ],
      "name": "ERC721InvalidOperator",
      "type": "error"
    },
    {
      "inputs": [
        {
          "internalType": "address",
          "name": "owner",
          "type": "address"
        }
      ],
      "name": "ERC721InvalidOwner",
      "type": "error"
    },
    {
      "inputs": [
        {
          "internalType": "address",
          "name": "receiver",
          "type": "address"
        }
      ],
      "name": "ERC721InvalidReceiver",
      "type": "error"
    },
    {
      "inputs": [
        {
          "internalType": "address",
          "name": "sender",
          "type": "address"
        }
      ],
      "name": "ERC721InvalidSender",
      "type": "error"
    },
    {
      "inputs": [
        {
          "internalType": "uint256",
          "name": "tokenId",
          "type": "uint256"
        }
      ],
      "name": "ERC721NonexistentToken",
      "type": "error"
    },
    {
      "inputs": [
        {
          "internalType": "address",
          "name": "owner",
          "type": "address"
        }
      ],
      "name": "OwnableInvalidOwner",
      "type": "error"
    },
    {
      "inputs": [
        {
          "internalType": "address",
          "name": "account",
          "type": "address"
        }
      ],
      "name": "OwnableUnauthorizedAccount",
      "type": "error"
    },
    {
      "inputs": [],
      "name": "ReentrancyGuardReentrantCall",
      "type": "error"
    },
    {
      "anonymous": false,
      "inputs": [
        {
          "indexed": true,
          "internalType": "address",
          "name": "owner",
          "type": "address"
        },
        {
          "indexed": true,
          "internalType": "address",
          "name": "approved",
          "type": "address"
        },
        {
          "indexed": true,
          "internalType": "uint256",
          "name": "tokenId",
          "type": "uint256"
        }
      ],
      "name": "Approval",
      "type": "event"
    },
    {
      "anonymous": false,
      "inputs": [
        {
          "indexed": true,
          "internalType": "address",
          "name": "owner",
          "type": "address"
        },
        {
          "indexed": true,
          "internalType": "address",
          "name": "operator",
          "type": "address"
        },
        {
          "indexed": false,
          "internalType": "bool",
          "name": "approved",
          "type": "bool"
        }
      ],
      "name": "ApprovalForAll",
      "type": "event"
    },
    {
      "anonymous": false,
      "inputs": [
        {
          "indexed": true,
          "internalType": "uint256",
          "name": "tokenId",
          "type": "uint256"
        },
        {
          "indexed": true,
          "internalType": "address",
          "name": "to",
          "type": "address"
        },
        {
          "indexed": false,
          "internalType": "string",
          "name": "encryptedURI",
          "type": "string"
        }
      ],
      "name": "GuardianMinted",
      "type": "event"
    },
    {
      "anonymous": false,
      "inputs": [
        {
          "indexed": true,
          "internalType": "uint256",
          "name": "tokenId",
          "type": "uint256"
        },
        {
          "indexed": true,
          "internalType": "address",
          "name": "from",
          "type": "address"
        },
        {
          "indexed": true,
          "internalType": "address",
          "name": "to",
          "type": "address"
        },
        {
          "indexed": false,
          "internalType": "bytes32",
          "name": "newHash",
          "type": "bytes32"
        }
      ],
      "name": "GuardianTransferred",
      "type": "event"
    },
    {
      "anonymous": false,
      "inputs": [
        {
          "indexed": true,
          "internalType": "address",
          "name": "oldOracle",
          "type": "address"
        },
        {
          "indexed": true,
          "internalType": "address",
          "name": "newOracle",
          "type": "address"
        }
      ],
      "name": "OracleUpdated",
      "type": "event"
    },
    {
      "anonymous": false,
      "inputs": [
        {
          "indexed": true,
          "internalType": "address",
          "name": "previousOwner",
          "type": "address"
        },
        {
          "indexed": true,
          "internalType": "address",
          "name": "newOwner",
          "type": "address"
        }
      ],
      "name": "OwnershipTransferred",
      "type": "event"
    },
    {
      "anonymous": false,
      "inputs": [
        {
          "indexed": true,
          "internalType": "address",
          "name": "from",
          "type": "address"
        },
        {
          "indexed": true,
          "internalType": "address",
          "name": "to",
          "type": "address"
        },
        {
          "indexed": true,
          "internalType": "uint256",
          "name": "tokenId",
          "type": "uint256"
        }
      ],
      "name": "Transfer",
      "type": "event"
    },
    {
      "anonymous": false,
      "inputs": [
        {
          "indexed": true,
          "internalType": "uint256",
          "name": "tokenId",
          "type": "uint256"
        },
        {
          "indexed": true,
          "internalType": "address",
          "name": "executor",
          "type": "address"
        }
      ],
      "name": "UsageAuthorized",
      "type": "event"
    },
    {
      "inputs": [
        {
          "internalType": "address",
          "name": "to",
          "type": "address"
        },
        {
          "internalType": "uint256",
          "name": "tokenId",
          "type": "uint256"
        }
      ],
      "name": "approve",
      "outputs": [],
      "stateMutability": "nonpayable",
      "type": "function"
    },
    {
      "inputs": [
        {
          "internalType": "uint256",
          "name": "tokenId",
          "type": "uint256"
        },
        {
          "internalType": "address",
          "name": "executor",
          "type": "address"
        },
        {
          "internalType": "bytes",
          "name": "permissions",
          "type": "bytes"
        }
      ],
      "name": "authorizeUsage",
      "outputs": [],
      "stateMutability": "nonpayable",
      "type": "function"
    },
    {
      "inputs": [
        {
          "internalType": "address",
          "name": "owner",
          "type": "address"
        }
      ],
      "name": "balanceOf",
      "outputs": [
        {
          "internalType": "uint256",
          "name": "",
          "type": "uint256"
        }
      ],
      "stateMutability": "view",
      "type": "function"
    },
    {
      "inputs": [
        {
          "internalType": "uint256",
          "name": "tokenId",
          "type": "uint256"
        }
      ],
      "name": "getApproved",
      "outputs": [
        {
          "internalType": "address",
          "name": "",
          "type": "address"
        }
      ],
      "stateMutability": "view",
      "type": "function"
    },
    {
      "inputs": [
        {
          "internalType": "uint256",
          "name": "tokenId",
          "type": "uint256"
        }
      ],
      "name": "getEncryptedURI",
      "outputs": [
        {
          "internalType": "string",
          "name": "",
          "type": "string"
        }
      ],
      "stateMutability": "view",
      "type": "function"
    },
    {
      "inputs": [
        {
          "internalType": "uint256",
          "name": "tokenId",
          "type": "uint256"
        }
      ],
      "name": "getMetadataHash",
      "outputs": [
        {
          "internalType": "bytes32",
          "name": "",
          "type": "bytes32"
        }
      ],
      "stateMutability": "view",
      "type": "function"
    },
    {
      "inputs": [
        {
          "internalType": "uint256",
          "name": "tokenId",
          "type": "uint256"
        },
        {
          "internalType": "address",
          "name": "user",
          "type": "address"
        }
      ],
      "name": "getSealedKey",
      "outputs": [
        {
          "internalType": "bytes",
          "name": "",
          "type": "bytes"
        }
      ],
      "stateMutability": "view",
      "type": "function"
    },
    {
      "inputs": [
        {
          "internalType": "address",
          "name": "owner",
          "type": "address"
        },
        {
          "internalType": "address",
          "name": "operator",
          "type": "address"
        }
      ],
      "name": "isApprovedForAll",
      "outputs": [
        {
          "internalType": "bool",
          "name": "",
          "type": "bool"
        }
      ],
      "stateMutability": "view",
      "type": "function"
    },
    {
      "inputs": [
        {
          "internalType": "address",
          "name": "to",
          "type": "address"
        },
        {
          "internalType": "string",
          "name": "encryptedURI",
          "type": "string"
        },
        {
          "internalType": "bytes32",
          "name": "metadataHash",
          "type": "bytes32"
        },
        {
          "internalType": "bytes",
          "name": "sealedKey",
          "type": "bytes"
        }
      ],
      "name": "mint",
      "outputs": [
        {
          "internalType": "uint256",
          "name": "",
          "type": "uint256"
        }
      ],
      "stateMutability": "nonpayable",
      "type": "function"
    },
    {
      "inputs": [],
      "name": "name",
      "outputs": [
        {
          "internalType": "string",
          "name": "",
          "type": "string"
        }
      ],
      "stateMutability": "view",
      "type": "function"
    },
    {
      "inputs": [],
      "name": "oracle",
      "outputs": [
        {
          "internalType": "address",
          "name": "",
          "type": "address"
        }
      ],
      "stateMutability": "view",
      "type": "function"
    },
    {
      "inputs": [],
      "name": "owner",
      "outputs": [
        {
          "internalType": "address",
          "name": "",
          "type": "address"
        }
      ],
      "stateMutability": "view",
      "type": "function"
    },
    {
      "inputs": [
        {
          "internalType": "uint256",
          "name": "tokenId",
          "type": "uint256"
        }
      ],
      "name": "ownerOf",
      "outputs": [
        {
          "internalType": "address",
          "name": "",
          "type": "address"
        }
      ],
      "stateMutability": "view",
      "type": "function"
    },
    {
      "inputs": [],
      "name": "renounceOwnership",
      "outputs": [],
      "stateMutability": "nonpayable",
      "type": "function"
    },
    {
      "inputs": [
        {
          "internalType": "address",
          "name": "from",
          "type": "address"
        },
        {
          "internalType": "address",
          "name": "to",
          "type": "address"
        },
        {
          "internalType": "uint256",
          "name": "tokenId",
          "type": "uint256"
        }
      ],
      "name": "safeTransferFrom",
      "outputs": [],
      "stateMutability": "nonpayable",
      "type": "function"
    },
    {
      "inputs": [
        {
          "internalType": "address",
          "name": "from",
          "type": "address"
        },
        {
          "internalType": "address",
          "name": "to",
          "type": "address"
        },
        {
          "internalType": "uint256",
          "name": "tokenId",
          "type": "uint256"
        },
        {
          "internalType": "bytes",
          "name": "data",
          "type": "bytes"
        }
      ],
      "name": "safeTransferFrom",
      "outputs": [],
      "stateMutability": "nonpayable",
      "type": "function"
    },
    {
      "inputs": [
        {
          "internalType": "address",
          "name": "from",
          "type": "address"
        },
        {
          "internalType": "address",
          "name": "to",
          "type": "address"
        },
        {
          "internalType": "uint256",
          "name": "tokenId",
          "type": "uint256"
        },
        {
          "internalType": "string",
          "name": "newEncryptedURI",
          "type": "string"
        },
        {
          "internalType": "bytes32",
          "name": "newMetadataHash",
          "type": "bytes32"
        },
        {
          "internalType": "bytes",
          "name": "newSealedKey",
          "type": "bytes"
        },
        {
          "internalType": "bytes",
          "name": "proof",
          "type": "bytes"
        }
      ],
      "name": "secureTransfer",
      "outputs": [],
      "stateMutability": "nonpayable",
      "type": "function"
    },
    {
      "inputs": [
        {
          "internalType": "address",
          "name": "operator",
          "type": "address"
        },
        {
          "internalType": "bool",
          "name": "approved",
          "type": "bool"
        }
      ],
      "name": "setApprovalForAll",
      "outputs": [],
      "stateMutability": "nonpayable",
      "type": "function"
    },
    {
      "inputs": [
        {
          "internalType": "address",
          "name": "newOracle",
          "type": "address"
        }
      ],
      "name": "setOracle",
      "outputs": [],
      "stateMutability": "nonpayable",
      "type": "function"
    },
    {
      "inputs": [
        {
          "internalType": "bytes4",
          "name": "interfaceId",
          "type": "bytes4"
        }
      ],
      "name": "supportsInterface",
      "outputs": [
        {
          "internalType": "bool",
          "name": "",
          "type": "bool"
        }
      ],
      "stateMutability": "view",
      "type": "function"
    },
    {
      "inputs": [],
      "name": "symbol",
      "outputs": [
        {
          "internalType": "string",
          "name": "",
          "type": "string"
        }
      ],
      "stateMutability": "view",
      "type": "function"
    },
    {
      "inputs": [
        {
          "internalType": "uint256",
          "name": "tokenId",
          "type": "uint256"
        }
      ],
      "name": "tokenURI",
      "outputs": [
        {
          "internalType": "string",
          "name": "",
          "type": "string"
        }
      ],
      "stateMutability": "view",
      "type": "function"
    },
    {
      "inputs": [],
      "name": "totalMinted",
      "outputs": [
        {
          "internalType": "uint256",
          "name": "",
          "type": "uint256"
        }
      ],
      "stateMutability": "view",
      "type": "function"
    },
    {
      "inputs": [
        {
          "internalType": "address",
          "name": "from",
          "type": "address"
        },
        {
          "internalType": "address",
          "name": "to",
          "type": "address"
        },
        {
          "internalType": "uint256",
          "name": "tokenId",
          "type": "uint256"
        }
      ],
      "name": "transferFrom",
      "outputs": [],
      "stateMutability": "nonpayable",
      "type": "function"
    },
    {
      "inputs": [
        {
          "internalType": "address",
          "name": "newOwner",
          "type": "address"
        }
      ],
      "name": "transferOwnership",
      "outputs": [],
      "stateMutability": "nonpayable",
      "type": "function"
    }
  ],
  "bytecode": "0x60806040526001600b55348015610014575f5ffd5b5060405161227538038061227583398101604081905261003391610219565b3383835f6100418382610322565b50600161004e8282610322565b5050506001600160a01b03811661007f57604051631e4fbdf760e01b81525f60048201526024015b60405180910390fd5b6100888161012b565b5060017f9b779b17422d0df92223018b32b4d1fa46e071723d6817e2486d003becc55f00556001600160a01b0381166101035760405162461bcd60e51b815260206004820152601d60248201527f4f7261636c6520616464726573732063616e6e6f74206265207a65726f0000006044820152606401610076565b600a80546001600160a01b0319166001600160a01b0392909216919091179055506103dc9050565b600680546001600160a01b038381166001600160a01b0319831681179093556040519116919082907f8be0079c531659141344cd1fd0a4f28419497f9722a3daafe3b4186f6b6457e0905f90a35050565b634e487b7160e01b5f52604160045260245ffd5b5f82601f83011261019f575f5ffd5b81516001600160401b038111156101b8576101b861017c565b604051601f8201601f19908116603f011681016001600160401b03811182821017156101e6576101e661017c565b6040528181528382016020018510156101fd575f5ffd5b8160208501602083015e5f918101602001919091529392505050565b5f5f5f6060848603121561022b575f5ffd5b83516001600160401b03811115610240575f5ffd5b61024c86828701610190565b602086015190945090506001600160401b03811115610269575f5ffd5b61027586828701610190565b604086015190935090506001600160a01b0381168114610293575f5ffd5b809150509250925092565b600181811c908216806102b257607f821691505b6020821081036102d057634e487b7160e01b5f52602260045260245ffd5b50919050565b601f82111561031d57805f5260205f20601f840160051c810160208510156102fb5750805b601f840160051c820191505b8181101561031a575f8155600101610307565b50505b505050565b81516001600160401b0381111561033b5761033b61017c565b61034f81610349845461029e565b846102d6565b6020601f821160018114610381575f831561036a5750848201515b5f19600385901b1c1916600184901b17845561031a565b5f84815260208120601f198516915b828110156103b05787850151825560209485019460019092019101610390565b50848210156103cd57868401515f19600387901b60f8161c191681555b50505050600190811b01905550565b611e8c806103e95f395ff3fe608060405234801561000f575f5ffd5b506004361061016d575f3560e01c80637b297a6f116100d9578063acbb3f7c11610093578063e985e9c51161006e578063e985e9c51461031c578063f2fde38b1461032f578063f448f87114610342578063f693ffaf14610355575f5ffd5b8063acbb3f7c146102e3578063b88d4fde146102f6578063c87b56dd14610309575f5ffd5b80637b297a6f146102895780637dc0d1d01461029c5780638da5cb5b146102af57806395d89b41146102c0578063a22cb465146102c8578063a2309ff8146102db575f5ffd5b806342842e0e1161012a57806342842e0e146102145780636352211e1461022757806370a082311461023a578063715018a61461025b578063774bd052146102635780637adbf97314610276575f5ffd5b806301ffc9a71461017157806306fdde0314610199578063081812fc146101ae578063095ea7b3146101d95780631d77978b146101ee57806323b872dd14610201575b5f5ffd5b61018461017f366004611756565b610368565b60405190151581526020015b60405180910390f35b6101a16103b9565b604051610190919061179f565b6101c16101bc3660046117b1565b610448565b6040516001600160a01b039091168152602001610190565b6101ec6101e73660046117e3565b61046f565b005b6101a16101fc36600461180b565b61047e565b6101ec61020f366004611835565b61056d565b6101ec610222366004611835565b6105f6565b6101c16102353660046117b1565b610615565b61024d61024836600461186f565b61061f565b604051908152602001610190565b6101ec610664565b6101ec6102713660046118cd565b610677565b6101ec61028436600461186f565b610939565b6101ec6102973660046119a1565b6109e0565b600a546101c1906001600160a01b031681565b6006546001600160a01b03166101c1565b6101a1610a94565b6101ec6102d6366004611a04565b610aa3565b61024d610aae565b6101a16102f13660046117b1565b610ac3565b6101ec610304366004611a4d565b610b94565b6101a16103173660046117b1565b610bac565b61018461032a366004611b2a565b610c1d565b6101ec61033d36600461186f565b610c4a565b61024d6103503660046117b1565b610c87565b61024d610363366004611b52565b610ccc565b5f6001600160e01b031982166380ac58cd60e01b148061039857506001600160e01b03198216635b5e139f60e01b145b806103b357506301ffc9a760e01b6001600160e01b03198316145b92915050565b60605f80546103c790611bdb565b80601f01602080910402602001604051908101604052809291908181526020018280546103f390611bdb565b801561043e5780601f106104155761010080835404028352916020019161043e565b820191905f5260205f20905b81548152906001019060200180831161042157829003601f168201915b5050505050905090565b5f61045282610e1b565b505f828152600460205260409020546001600160a01b03166103b3565b61047a828233610e53565b5050565b5f828152600260205260409020546060906001600160a01b03166104bd5760405162461bcd60e51b81526004016104b490611c13565b60405180910390fd5b5f8381526009602090815260408083206001600160a01b0386168452909152902080546104e990611bdb565b80601f016020809104026020016040519081016040528092919081815260200182805461051590611bdb565b80156105605780601f1061053757610100808354040283529160200191610560565b820191905f5260205f20905b81548152906001019060200180831161054357829003601f168201915b5050505050905092915050565b6001600160a01b03821661059657604051633250574960e11b81525f60048201526024016104b4565b5f6105a2838333610e60565b9050836001600160a01b0316816001600160a01b0316146105f0576040516364283d7b60e01b81526001600160a01b03808616600483015260248201849052821660448201526064016104b4565b50505050565b61061083838360405180602001604052805f815250610b94565b505050565b5f6103b382610e1b565b5f6001600160a01b038216610649576040516322718ad960e21b81525f60048201526024016104b4565b506001600160a01b03165f9081526003602052604090205490565b61066c610f52565b6106755f610f7f565b565b61067f610fd0565b896001600160a01b031661069289610615565b6001600160a01b0316146106e05760405162461bcd60e51b8152602060048201526015602482015274233937b69034b9903737ba103a34329037bbb732b960591b60448201526064016104b4565b6106ea3389610ffe565b6107275760405162461bcd60e51b815260206004820152600e60248201526d139bdd08185d5d1a1bdc9a5e995960921b60448201526064016104b4565b6001600160a01b03891661077d5760405162461bcd60e51b815260206004820152601f60248201527f43616e6e6f74207472616e7366657220746f207a65726f20616464726573730060448201526064016104b4565b600a54604051632ae132ff60e11b81526001600160a01b03909116906355c265fe906107af9085908590600401611c69565b602060405180830381865afa1580156107ca573d5f5f3e3d5ffd5b505050506040513d601f19601f820116820180604052508101906107ee9190611c7c565b6108315760405162461bcd60e51b815260206004820152601460248201527324b73b30b634b21037b930b1b63290383937b7b360611b60448201526064016104b4565b5f888152600760205260409020610849878983611cdb565b505f888152600860209081526040808320889055600982528083206001600160a01b038d1684529091529020610880848683611cdb565b505f8881526009602090815260408083206001600160a01b038e16845290915281206108ab916116f7565b6108b68a8a8a611058565b886001600160a01b03168a6001600160a01b0316897ffbf9899067814e1901c9c3debe15c3e0740ed1dabcd34d41ce49b20f0603c07c886040516108fc91815260200190565b60405180910390a461092d60017f9b779b17422d0df92223018b32b4d1fa46e071723d6817e2486d003becc55f0055565b50505050505050505050565b610941610f52565b6001600160a01b03811661098f5760405162461bcd60e51b81526020600482015260156024820152744f7261636c652063616e6e6f74206265207a65726f60581b60448201526064016104b4565b600a80546001600160a01b038381166001600160a01b0319831681179093556040519116919082907f078c3b417dadf69374a59793b829c52001247130433427049317bde56607b1b7905f90a35050565b336109ea85610615565b6001600160a01b031614610a2c5760405162461bcd60e51b81526020600482015260096024820152682737ba1037bbb732b960b91b60448201526064016104b4565b5f8481526009602090815260408083206001600160a01b03871684529091529020610a58828483611cdb565b506040516001600160a01b0384169085907f6b759ed2b6cfe980ab7df296b16f139dd2d334802653e3a3d396153450b9cff1905f90a350505050565b6060600180546103c790611bdb565b61047a338383611105565b5f6001600b54610abe9190611da9565b905090565b5f818152600260205260409020546060906001600160a01b0316610af95760405162461bcd60e51b81526004016104b490611c13565b5f8281526007602052604090208054610b1190611bdb565b80601f0160208091040260200160405190810160405280929190818152602001828054610b3d90611bdb565b8015610b885780601f10610b5f57610100808354040283529160200191610b88565b820191905f5260205f20905b815481529060010190602001808311610b6b57829003601f168201915b50505050509050919050565b610b9f84848461056d565b6105f033858585856111cc565b6060610bb782610e1b565b505f610bcd60408051602081019091525f815290565b90505f815111610beb5760405180602001604052805f815250610c16565b80610bf5846112f4565b604051602001610c06929190611dd3565b6040516020818303038152906040525b9392505050565b6001600160a01b039182165f90815260056020908152604080832093909416825291909152205460ff1690565b610c52610f52565b6001600160a01b038116610c7b57604051631e4fbdf760e01b81525f60048201526024016104b4565b610c8481610f7f565b50565b5f818152600260205260408120546001600160a01b0316610cba5760405162461bcd60e51b81526004016104b490611c13565b505f9081526008602052604090205490565b5f6001600160a01b038716610d235760405162461bcd60e51b815260206004820152601b60248201527f43616e6e6f74206d696e7420746f207a65726f2061646472657373000000000060448201526064016104b4565b84610d5c5760405162461bcd60e51b8152602060048201526009602482015268456d7074792055524960b81b60448201526064016104b4565b600b80545f9182610d6c83611de7565b919050559050610d7c8882611384565b5f818152600760205260409020610d94878983611cdb565b505f818152600860209081526040808320889055600982528083206001600160a01b038c1684529091529020610dcb848683611cdb565b50876001600160a01b0316817faeed4db907e40d6d68f36f70d41113f33c9b518a29d30b2921c15e4c0085d6ad8989604051610e08929190611c69565b60405180910390a3979650505050505050565b5f818152600260205260408120546001600160a01b0316806103b357604051637e27328960e01b8152600481018490526024016104b4565b610610838383600161139d565b5f828152600260205260408120546001600160a01b0390811690831615610e8c57610e8c8184866114a1565b6001600160a01b03811615610ec657610ea75f855f5f61139d565b6001600160a01b0381165f90815260036020526040902080545f190190555b6001600160a01b03851615610ef4576001600160a01b0385165f908152600360205260409020805460010190555b5f8481526002602052604080822080546001600160a01b0319166001600160a01b0389811691821790925591518793918516917fddf252ad1be2c89b69c2b068fc378daa952ba7f163c4a11628f55a4df523b3ef91a4949350505050565b6006546001600160a01b031633146106755760405163118cdaa760e01b81523360048201526024016104b4565b600680546001600160a01b038381166001600160a01b0319831681179093556040519116919082907f8be0079c531659141344cd1fd0a4f28419497f9722a3daafe3b4186f6b6457e0905f90a35050565b610fd8611505565b60027f9b779b17422d0df92223018b32b4d1fa46e071723d6817e2486d003becc55f0055565b5f818152600260205260408120546001600160a01b0390811690841681148061102c575061102c8185610c1d565b806110505750836001600160a01b031661104584610448565b6001600160a01b0316145b949350505050565b6001600160a01b03821661108157604051633250574960e11b81525f60048201526024016104b4565b5f61108d83835f610e60565b90506001600160a01b0381166110b957604051637e27328960e01b8152600481018390526024016104b4565b836001600160a01b0316816001600160a01b0316146105f0576040516364283d7b60e01b81526001600160a01b03808616600483015260248201849052821660448201526064016104b4565b6001600160a01b03831661112e5760405163a9fbf51f60e01b81525f60048201526024016104b4565b6001600160a01b03821661116057604051630b61174360e31b81526001600160a01b03831660048201526024016104b4565b6001600160a01b038381165f81815260056020908152604080832094871680845294825291829020805460ff191686151590811790915591519182527f17307eab39ab6107e8899845ad3d59bd9653f200f220920489ca2b5937696c31910160405180910390a3505050565b6001600160a01b0383163b156112ed57604051630a85bd0160e11b81526001600160a01b0384169063150b7a029061120e908890889087908790600401611dff565b6020604051808303815f875af1925050508015611248575060408051601f3d908101601f1916820190925261124591810190611e3b565b60015b6112af573d808015611275576040519150601f19603f3d011682016040523d82523d5f602084013e61127a565b606091505b5080515f036112a757604051633250574960e11b81526001600160a01b03851660048201526024016104b4565b805160208201fd5b6001600160e01b03198116630a85bd0160e11b146112eb57604051633250574960e11b81526001600160a01b03851660048201526024016104b4565b505b5050505050565b60605f61130083611547565b60010190505f8167ffffffffffffffff81111561131f5761131f611a39565b6040519080825280601f01601f191660200182016040528015611349576020820181803683370190505b5090508181016020015b5f19016f181899199a1a9b1b9c1cb0b131b232b360811b600a86061a8153600a850494508461135357509392505050565b61047a828260405180602001604052805f81525061161e565b80806113b157506001600160a01b03821615155b15611472575f6113c084610e1b565b90506001600160a01b038316158015906113ec5750826001600160a01b0316816001600160a01b031614155b80156113ff57506113fd8184610c1d565b155b156114285760405163a9fbf51f60e01b81526001600160a01b03841660048201526024016104b4565b81156114705783856001600160a01b0316826001600160a01b03167f8c5be1e5ebec7d5bd14f71427d1e84f3dd0314c0f7b2291e5b200ac8c7c3b92560405160405180910390a45b505b50505f90815260046020526040902080546001600160a01b0319166001600160a01b0392909216919091179055565b6114ac838383611635565b610610576001600160a01b0383166114da57604051637e27328960e01b8152600481018290526024016104b4565b60405163177e802f60e01b81526001600160a01b0383166004820152602481018290526044016104b4565b7f9b779b17422d0df92223018b32b4d1fa46e071723d6817e2486d003becc55f005460020361067557604051633ee5aeb560e01b815260040160405180910390fd5b5f8072184f03e93ff9f4daa797ed6e38ed64bf6a1f0160401b83106115855772184f03e93ff9f4daa797ed6e38ed64bf6a1f0160401b830492506040015b6d04ee2d6d415b85acef810000000083106115b1576d04ee2d6d415b85acef8100000000830492506020015b662386f26fc1000083106115cf57662386f26fc10000830492506010015b6305f5e10083106115e7576305f5e100830492506008015b61271083106115fb57612710830492506004015b6064831061160d576064830492506002015b600a83106103b35760010192915050565b6116288383611696565b610610335f8585856111cc565b5f6001600160a01b038316158015906110505750826001600160a01b0316846001600160a01b0316148061166e575061166e8484610c1d565b806110505750505f908152600460205260409020546001600160a01b03908116911614919050565b6001600160a01b0382166116bf57604051633250574960e11b81525f60048201526024016104b4565b5f6116cb83835f610e60565b90506001600160a01b03811615610610576040516339e3563760e11b81525f60048201526024016104b4565b50805461170390611bdb565b5f825580601f10611712575050565b601f0160209004905f5260205f2090810190610c8491905b8082111561173d575f815560010161172a565b5090565b6001600160e01b031981168114610c84575f5ffd5b5f60208284031215611766575f5ffd5b8135610c1681611741565b5f81518084528060208401602086015e5f602082860101526020601f19601f83011685010191505092915050565b602081525f610c166020830184611771565b5f602082840312156117c1575f5ffd5b5035919050565b80356001600160a01b03811681146117de575f5ffd5b919050565b5f5f604083850312156117f4575f5ffd5b6117fd836117c8565b946020939093013593505050565b5f5f6040838503121561181c575f5ffd5b8235915061182c602084016117c8565b90509250929050565b5f5f5f60608486031215611847575f5ffd5b611850846117c8565b925061185e602085016117c8565b929592945050506040919091013590565b5f6020828403121561187f575f5ffd5b610c16826117c8565b5f5f83601f840112611898575f5ffd5b50813567ffffffffffffffff8111156118af575f5ffd5b6020830191508360208285010111156118c6575f5ffd5b9250929050565b5f5f5f5f5f5f5f5f5f5f60e08b8d0312156118e6575f5ffd5b6118ef8b6117c8565b99506118fd60208c016117c8565b985060408b0135975060608b013567ffffffffffffffff81111561191f575f5ffd5b61192b8d828e01611888565b90985096505060808b0135945060a08b013567ffffffffffffffff811115611951575f5ffd5b61195d8d828e01611888565b90955093505060c08b013567ffffffffffffffff81111561197c575f5ffd5b6119888d828e01611888565b915080935050809150509295989b9194979a5092959850565b5f5f5f5f606085870312156119b4575f5ffd5b843593506119c4602086016117c8565b9250604085013567ffffffffffffffff8111156119df575f5ffd5b6119eb87828801611888565b95989497509550505050565b8015158114610c84575f5ffd5b5f5f60408385031215611a15575f5ffd5b611a1e836117c8565b91506020830135611a2e816119f7565b809150509250929050565b634e487b7160e01b5f52604160045260245ffd5b5f5f5f5f60808587031215611a60575f5ffd5b611a69856117c8565b9350611a77602086016117c8565b925060408501359150606085013567ffffffffffffffff811115611a99575f5ffd5b8501601f81018713611aa9575f5ffd5b803567ffffffffffffffff811115611ac357611ac3611a39565b604051601f8201601f19908116603f0116810167ffffffffffffffff81118282101715611af257611af2611a39565b604052818152828201602001891015611b09575f5ffd5b816020840160208301375f6020838301015280935050505092959194509250565b5f5f60408385031215611b3b575f5ffd5b611b44836117c8565b915061182c602084016117c8565b5f5f5f5f5f5f60808789031215611b67575f5ffd5b611b70876117c8565b9550602087013567ffffffffffffffff811115611b8b575f5ffd5b611b9789828a01611888565b90965094505060408701359250606087013567ffffffffffffffff811115611bbd575f5ffd5b611bc989828a01611888565b979a9699509497509295939492505050565b600181811c90821680611bef57607f821691505b602082108103611c0d57634e487b7160e01b5f52602260045260245ffd5b50919050565b602080825260149082015273151bdad95b88191bd95cc81b9bdd08195e1a5cdd60621b604082015260600190565b81835281816020850137505f828201602090810191909152601f909101601f19169091010190565b602081525f611050602083018486611c41565b5f60208284031215611c8c575f5ffd5b8151610c16816119f7565b601f82111561061057805f5260205f20601f840160051c81016020851015611cbc5750805b601f840160051c820191505b818110156112ed575f8155600101611cc8565b67ffffffffffffffff831115611cf357611cf3611a39565b611d0783611d018354611bdb565b83611c97565b5f601f841160018114611d38575f8515611d215750838201355b5f19600387901b1c1916600186901b1783556112ed565b5f83815260208120601f198716915b82811015611d675786850135825560209485019460019092019101611d47565b5086821015611d83575f1960f88860031b161c19848701351681555b505060018560011b0183555050505050565b634e487b7160e01b5f52601160045260245ffd5b818103818111156103b3576103b3611d95565b5f81518060208401855e5f93019283525090919050565b5f611050611de18386611dbc565b84611dbc565b5f60018201611df857611df8611d95565b5060010190565b6001600160a01b03858116825284166020820152604081018390526080606082018190525f90611e3190830184611771565b9695505050505050565b5f60208284031215611e4b575f5ffd5b8151610c168161174156fea2646970667358221220b192ad38be203f5a1db7444ba6ba7189978f56321ca324911e15b29e4e17359b64736f6c634300081c0033",
  "linkReferences": {},
  "deployedLinkReferences": {}
}