{
  "_format": "hh-sol-artifact-1",
  "contractName": "GuardianINFT",
  "sourceName": "contracts/GuardianINFT.sol",
  "abi": [
    {
      "inputs": [
        {
          "internalType": "string",
          "name": "name_",
          "type": "string"
        },
        {
          "internalType": "string",
          "name": "symbol_",
          "type": "string"
        },
        {
          "internalType": "address",
          "name": "_oracle",
          "type": "address"
        }
      ],
      "stateMutability": "nonpayable",
      "type": "constructor"
    },
    {
      "inputs": [
        {
          "internalType": "address",
          "name": "sender",
          "type": "address"
        },
        {
          "internalType": "uint256",
          "name": "tokenId",
          "type": "uint256"
        },
        {
          "internalType": "address",
          "name": "owner",
          "type": "address"
        }
      ],
      "name": "ERC721IncorrectOwner",
      "type": "error"
    },
    {
      "inputs": [
        {
          "internalType": "address",
          "name": "operator",
          "type": "address"
        },
        {
          "internalType": "uint256",
          "name": "tokenId",
          "type": "uint256"
        }
      ],
      "name": "ERC721InsufficientApproval",
      "type": "error"
    },
    {
      "inputs": [
        {
          "internalType": "address",
          "name": "approver",
          "type": "address"
        }
      ],
      "name": "ERC721InvalidApprover",
      "type": "error"
    },
    {
      "inputs": [
        {
          "internalType": "address",
          "name": "operator",
          "type": "address"
        }
      ],
      "name": "ERC721InvalidOperator",
      "type": "error"
    },
    {
      "inputs": [
        {
          "internalType": "address",
          "name": "owner",
          "type": "address"
        }
      ],
      "name": "ERC721InvalidOwner",
      "type": "error"
    },
    {
      "inputs": [
        {
          "internalType": "address",
          "name": "receiver",
          "type": "address"
        }
      ],
      "name": "ERC721InvalidReceiver",
      "type": "error"
    },
    {
      "inputs": [
        {
          "internalType": "address",
          "name": "sender",
          "type": "address"
        }
      ],
      "name": "ERC721InvalidSender",
      "type": "error"
    },
    {
      "inputs": [
        {
          "internalType": "uint256",
          "name": "tokenId",
          "type": "uint256"
        }
      ],
      "name": "ERC721NonexistentToken",
      "type": "error"
    },
    {
      "inputs": [
        {
          "internalType": "address",
          "name": "owner",
          "type": "address"
        }
      ],
      "name": "OwnableInvalidOwner",
      "type": "error"
    },
    {
      "inputs": [
        {
          "internalType": "address",
          "name": "account",
          "type": "address"
        }
      ],
      "name": "OwnableUnauthorizedAccount",
      "type": "error"
    },
    {
      "inputs": [],
      "name": "ReentrancyGuardReentrantCall",
      "type": "error"
    },
    {
      "anonymous": false,
      "inputs": [
        {
          "indexed": true,
          "internalType": "address",
          "name": "owner",
          "type": "address"
        },
        {
          "indexed": true,
          "internalType": "address",
          "name": "approved",
          "type": "address"
        },
        {
          "indexed": true,
          "internalType": "uint256",
          "name": "tokenId",
          "type": "uint256"
        }
      ],
      "name": "Approval",
      "type": "event"
    },
    {
      "anonymous": false,
      "inputs": [
        {
          "indexed": true,
          "internalType": "address",
          "name": "owner",
          "type": "address"
        },
        {
          "indexed": true,
          "internalType": "address",
          "name": "operator",
          "type": "address"
        },
        {
          "indexed": false,
          "internalType": "bool",
          "name": "approved",
          "type": "bool"
        }
      ],
      "name": "ApprovalForAll",
      "type": "event"
    },
    {
      "anonymous": false,
      "inputs": [
        {
          "indexed": true,
          "internalType": "uint256",
          "name": "tokenId",
          "type": "uint256"
        },
        {
          "indexed": false,
          "internalType": "string",
          "name": "newEncryptedURI",
          "type": "string"
        },
        {
          "indexed": false,
          "internalType": "bytes32",
          "name": "newMetadataHash",
          "type": "bytes32"
        }
      ],
      "name": "GuardianMemoryUpdated",
      "type": "event"
    },
    {
      "anonymous": false,
      "inputs": [
        {
          "indexed": true,
          "internalType": "uint256",
          "name": "tokenId",
          "type": "uint256"
        },
        {
          "indexed": true,
          "internalType": "address",
          "name": "to",
          "type": "address"
        },
        {
          "indexed": false,
          "internalType": "string",
          "name": "encryptedURI",
          "type": "string"
        }
      ],
      "name": "GuardianMinted",
      "type": "event"
    },
    {
      "anonymous": false,
      "inputs": [
        {
          "indexed": true,
          "internalType": "uint256",
          "name": "tokenId",
          "type": "uint256"
        },
        {
          "indexed": true,
          "internalType": "address",
          "name": "from",
          "type": "address"
        },
        {
          "indexed": true,
          "internalType": "address",
          "name": "to",
          "type": "address"
        },
        {
          "indexed": false,
          "internalType": "bytes32",
          "name": "newHash",
          "type": "bytes32"
        }
      ],
      "name": "GuardianTransferred",
      "type": "event"
    },
    {
      "anonymous": false,
      "inputs": [
        {
          "indexed": true,
          "internalType": "address",
          "name": "oldOracle",
          "type": "address"
        },
        {
          "indexed": true,
          "internalType": "address",
          "name": "newOracle",
          "type": "address"
        }
      ],
      "name": "OracleUpdated",
      "type": "event"
    },
    {
      "anonymous": false,
      "inputs": [
        {
          "indexed": true,
          "internalType": "address",
          "name": "previousOwner",
          "type": "address"
        },
        {
          "indexed": true,
          "internalType": "address",
          "name": "newOwner",
          "type": "address"
        }
      ],
      "name": "OwnershipTransferred",
      "type": "event"
    },
    {
      "anonymous": false,
      "inputs": [
        {
          "indexed": true,
          "internalType": "address",
          "name": "from",
          "type": "address"
        },
        {
          "indexed": true,
          "internalType": "address",
          "name": "to",
          "type": "address"
        },
        {
          "indexed": true,
          "internalType": "uint256",
          "name": "tokenId",
          "type": "uint256"
        }
      ],
      "name": "Transfer",
      "type": "event"
    },
    {
      "anonymous": false,
      "inputs": [
        {
          "indexed": true,
          "internalType": "uint256",
          "name": "tokenId",
          "type": "uint256"
        },
        {
          "indexed": true,
          "internalType": "address",
          "name": "executor",
          "type": "address"
        }
      ],
      "name": "UsageAuthorized",
      "type": "event"
    },
    {
      "inputs": [
        {
          "internalType": "address",
          "name": "to",
          "type": "address"
        },
        {
          "internalType": "uint256",
          "name": "tokenId",
          "type": "uint256"
        }
      ],
      "name": "approve",
      "outputs": [],
      "stateMutability": "nonpayable",
      "type": "function"
    },
    {
      "inputs": [
        {
          "internalType": "uint256",
          "name": "tokenId",
          "type": "uint256"
        },
        {
          "internalType": "address",
          "name": "executor",
          "type": "address"
        },
        {
          "internalType": "bytes",
          "name": "permissions",
          "type": "bytes"
        }
      ],
      "name": "authorizeUsage",
      "outputs": [],
      "stateMutability": "nonpayable",
      "type": "function"
    },
    {
      "inputs": [
        {
          "internalType": "address",
          "name": "owner",
          "type": "address"
        }
      ],
      "name": "balanceOf",
      "outputs": [
        {
          "internalType": "uint256",
          "name": "",
          "type": "uint256"
        }
      ],
      "stateMutability": "view",
      "type": "function"
    },
    {
      "inputs": [
        {
          "internalType": "uint256",
          "name": "tokenId",
          "type": "uint256"
        }
      ],
      "name": "getApproved",
      "outputs": [
        {
          "internalType": "address",
          "name": "",
          "type": "address"
        }
      ],
      "stateMutability": "view",
      "type": "function"
    },
    {
      "inputs": [
        {
          "internalType": "uint256",
          "name": "tokenId",
          "type": "uint256"
        }
      ],
      "name": "getEncryptedURI",
      "outputs": [
        {
          "internalType": "string",
          "name": "",
          "type": "string"
        }
      ],
      "stateMutability": "view",
      "type": "function"
    },
    {
      "inputs": [
        {
          "internalType": "uint256",
          "name": "tokenId",
          "type": "uint256"
        }
      ],
      "name": "getMetadataHash",
      "outputs": [
        {
          "internalType": "bytes32",
          "name": "",
          "type": "bytes32"
        }
      ],
      "stateMutability": "view",
      "type": "function"
    },
    {
      "inputs": [
        {
          "internalType": "uint256",
          "name": "tokenId",
          "type": "uint256"
        },
        {
          "internalType": "address",
          "name": "user",
          "type": "address"
        }
      ],
      "name": "getSealedKey",
      "outputs": [
        {
          "internalType": "bytes",
          "name": "",
          "type": "bytes"
        }
      ],
      "stateMutability": "view",
      "type": "function"
    },
    {
      "inputs": [
        {
          "internalType": "address",
          "name": "owner",
          "type": "address"
        },
        {
          "internalType": "address",
          "name": "operator",
          "type": "address"
        }
      ],
      "name": "isApprovedForAll",
      "outputs": [
        {
          "internalType": "bool",
          "name": "",
          "type": "bool"
        }
      ],
      "stateMutability": "view",
      "type": "function"
    },
    {
      "inputs": [
        {
          "internalType": "address",
          "name": "to",
          "type": "address"
        },
        {
          "internalType": "string",
          "name": "encryptedURI",
          "type": "string"
        },
        {
          "internalType": "bytes32",
          "name": "metadataHash",
          "type": "bytes32"
        },
        {
          "internalType": "bytes",
          "name": "sealedKey",
          "type": "bytes"
        }
      ],
      "name": "mint",
      "outputs": [
        {
          "internalType": "uint256",
          "name": "",
          "type": "uint256"
        }
      ],
      "stateMutability": "nonpayable",
      "type": "function"
    },
    {
      "inputs": [],
      "name": "name",
      "outputs": [
        {
          "internalType": "string",
          "name": "",
          "type": "string"
        }
      ],
      "stateMutability": "view",
      "type": "function"
    },
    {
      "inputs": [],
      "name": "oracle",
      "outputs": [
        {
          "internalType": "address",
          "name": "",
          "type": "address"
        }
      ],
      "stateMutability": "view",
      "type": "function"
    },
    {
      "inputs": [],
      "name": "owner",
      "outputs": [
        {
          "internalType": "address",
          "name": "",
          "type": "address"
        }
      ],
      "stateMutability": "view",
      "type": "function"
    },
    {
      "inputs": [
        {
          "internalType": "uint256",
          "name": "tokenId",
          "type": "uint256"
        }
      ],
      "name": "ownerOf",
      "outputs": [
        {
          "internalType": "address",
          "name": "",
          "type": "address"
        }
      ],
      "stateMutability": "view",
      "type": "function"
    },
    {
      "inputs": [],
      "name": "renounceOwnership",
      "outputs": [],
      "stateMutability": "nonpayable",
      "type": "function"
    },
    {
      "inputs": [
        {
          "internalType": "address",
          "name": "from",
          "type": "address"
        },
        {
          "internalType": "address",
          "name": "to",
          "type": "address"
        },
        {
          "internalType": "uint256",
          "name": "tokenId",
          "type": "uint256"
        }
      ],
      "name": "safeTransferFrom",
      "outputs": [],
      "stateMutability": "nonpayable",
      "type": "function"
    },
    {
      "inputs": [
        {
          "internalType": "address",
          "name": "from",
          "type": "address"
        },
        {
          "internalType": "address",
          "name": "to",
          "type": "address"
        },
        {
          "internalType": "uint256",
          "name": "tokenId",
          "type": "uint256"
        },
        {
          "internalType": "bytes",
          "name": "data",
          "type": "bytes"
        }
      ],
      "name": "safeTransferFrom",
      "outputs": [],
      "stateMutability": "nonpayable",
      "type": "function"
    },
    {
      "inputs": [
        {
          "internalType": "address",
          "name": "from",
          "type": "address"
        },
        {
          "internalType": "address",
          "name": "to",
          "type": "address"
        },
        {
          "internalType": "uint256",
          "name": "tokenId",
          "type": "uint256"
        },
        {
          "internalType": "string",
          "name": "newEncryptedURI",
          "type": "string"
        },
        {
          "internalType": "bytes32",
          "name": "newMetadataHash",
          "type": "bytes32"
        },
        {
          "internalType": "bytes",
          "name": "newSealedKey",
          "type": "bytes"
        },
        {
          "internalType": "bytes",
          "name": "proof",
          "type": "bytes"
        }
      ],
      "name": "secureTransfer",
      "outputs": [],
      "stateMutability": "nonpayable",
      "type": "function"
    },
    {
      "inputs": [
        {
          "internalType": "address",
          "name": "operator",
          "type": "address"
        },
        {
          "internalType": "bool",
          "name": "approved",
          "type": "bool"
        }
      ],
      "name": "setApprovalForAll",
      "outputs": [],
      "stateMutability": "nonpayable",
      "type": "function"
    },
    {
      "inputs": [
        {
          "internalType": "address",
          "name": "newOracle",
          "type": "address"
        }
      ],
      "name": "setOracle",
      "outputs": [],
      "stateMutability": "nonpayable",
      "type": "function"
    },
    {
      "inputs": [
        {
          "internalType": "bytes4",
          "name": "interfaceId",
          "type": "bytes4"
        }
      ],
      "name": "supportsInterface",
      "outputs": [
        {
          "internalType": "bool",
          "name": "",
          "type": "bool"
        }
      ],
      "stateMutability": "view",
      "type": "function"
    },
    {
      "inputs": [],
      "name": "symbol",
      "outputs": [
        {
          "internalType": "string",
          "name": "",
          "type": "string"
        }
      ],
      "stateMutability": "view",
      "type": "function"
    },
    {
      "inputs": [
        {
          "internalType": "uint256",
          "name": "tokenId",
          "type": "uint256"
        }
      ],
      "name": "tokenURI",
      "outputs": [
        {
          "internalType": "string",
          "name": "",
          "type": "string"
        }
      ],
      "stateMutability": "view",
      "type": "function"
    },
    {
      "inputs": [],
      "name": "totalMinted",
      "outputs": [
        {
          "internalType": "uint256",
          "name": "",
          "type": "uint256"
        }
      ],
      "stateMutability": "view",
      "type": "function"
    },
    {
      "inputs": [
        {
          "internalType": "address",
          "name": "from",
          "type": "address"
        },
        {
          "internalType": "address",
          "name": "to",
          "type": "address"
        },
        {
          "internalType": "uint256",
          "name": "tokenId",
          "type": "uint256"
        }
      ],
      "name": "transferFrom",
      "outputs": [],
      "stateMutability": "nonpayable",
      "type": "function"
    },
    {
      "inputs": [
        {
          "internalType": "address",
          "name": "newOwner",
          "type": "address"
        }
      ],
      "name": "transferOwnership",
      "outputs": [],
      "stateMutability": "nonpayable",
      "type": "function"
    },
    {
      "inputs": [
        {
          "internalType": "uint256",
          "name": "tokenId",
          "type": "uint256"
        },
        {
          "internalType": "string",
          "name": "newEncryptedURI",
          "type": "string"
        },
        {
          "internalType": "bytes32",
          "name": "newMetadataHash",
          "type": "bytes32"
        }
      ],
      "name": "updateMemory",
      "outputs": [],
      "stateMutability": "nonpayable",
      "type": "function"
    }
  ],
  "bytecode": "0x60806040526001600b55348015610014575f5ffd5b506040516123f93803806123f983398101604081905261003391610219565b3383835f6100418382610322565b50600161004e8282610322565b5050506001600160a01b03811661007f57604051631e4fbdf760e01b81525f60048201526024015b60405180910390fd5b6100888161012b565b5060017f9b779b17422d0df92223018b32b4d1fa46e071723d6817e2486d003becc55f00556001600160a01b0381166101035760405162461bcd60e51b815260206004820152601d60248201527f4f7261636c6520616464726573732063616e6e6f74206265207a65726f0000006044820152606401610076565b600a80546001600160a01b0319166001600160a01b0392909216919091179055506103dc9050565b600680546001600160a01b038381166001600160a01b0319831681179093556040519116919082907f8be0079c531659141344cd1fd0a4f28419497f9722a3daafe3b4186f6b6457e0905f90a35050565b634e487b7160e01b5f52604160045260245ffd5b5f82601f83011261019f575f5ffd5b81516001600160401b038111156101b8576101b861017c565b604051601f8201601f19908116603f011681016001600160401b03811182821017156101e6576101e661017c565b6040528181528382016020018510156101fd575f5ffd5b8160208501602083015e5f918101602001919091529392505050565b5f5f5f6060848603121561022b575f5ffd5b83516001600160401b03811115610240575f5ffd5b61024c86828701610190565b602086015190945090506001600160401b03811115610269575f5ffd5b61027586828701610190565b604086015190935090506001600160a01b0381168114610293575f5ffd5b809150509250925092565b600181811c908216806102b257607f821691505b6020821081036102d057634e487b7160e01b5f52602260045260245ffd5b50919050565b601f82111561031d57805f5260205f20601f840160051c810160208510156102fb5750805b601f840160051c820191505b8181101561031a575f8155600101610307565b50505b505050565b81516001600160401b0381111561033b5761033b61017c565b61034f81610349845461029e565b846102d6565b6020601f821160018114610381575f831561036a5750848201515b5f19600385901b1c1916600184901b17845561031a565b5f84815260208120601f198516915b828110156103b05787850151825560209485019460019092019101610390565b50848210156103cd57868401515f19600387901b60f8161c191681555b50505050600190811b01905550565b612010806103e95f395ff3fe608060405234801561000f575f5ffd5b5060043610610187575f3560e01c80637dc0d1d0116100d9578063b88d4fde11610093578063e985e9c51161006e578063e985e9c514610349578063f2fde38b1461035c578063f448f8711461036f578063f693ffaf14610382575f5ffd5b8063b88d4fde14610310578063c87b56dd14610323578063e4151eaf14610336575f5ffd5b80637dc0d1d0146102b65780638da5cb5b146102c957806395d89b41146102da578063a22cb465146102e2578063a2309ff8146102f5578063acbb3f7c146102fd575f5ffd5b806342842e0e11610144578063715018a61161011f578063715018a614610275578063774bd0521461027d5780637adbf973146102905780637b297a6f146102a3575f5ffd5b806342842e0e1461022e5780636352211e1461024157806370a0823114610254575f5ffd5b806301ffc9a71461018b57806306fdde03146101b3578063081812fc146101c8578063095ea7b3146101f35780631d77978b1461020857806323b872dd1461021b575b5f5ffd5b61019e610199366004611874565b610395565b60405190151581526020015b60405180910390f35b6101bb6103e6565b6040516101aa91906118bd565b6101db6101d63660046118cf565b610475565b6040516001600160a01b0390911681526020016101aa565b610206610201366004611901565b61049c565b005b6101bb610216366004611929565b6104ab565b610206610229366004611953565b61059a565b61020661023c366004611953565b610623565b6101db61024f3660046118cf565b610642565b61026761026236600461198d565b61064c565b6040519081526020016101aa565b610206610691565b61020661028b3660046119ea565b6106a4565b61020661029e36600461198d565b610966565b6102066102b1366004611abb565b610a0d565b600a546101db906001600160a01b031681565b6006546001600160a01b03166101db565b6101bb610ac1565b6102066102f0366004611b1d565b610ad0565b610267610adb565b6101bb61030b3660046118cf565b610af0565b61020661031e366004611b66565b610bc1565b6101bb6103313660046118cf565b610bd9565b610206610344366004611c40565b610c4a565b61019e610357366004611c8e565b610d3c565b61020661036a36600461198d565b610d69565b61026761037d3660046118cf565b610da6565b610267610390366004611cb6565b610deb565b5f6001600160e01b031982166380ac58cd60e01b14806103c557506001600160e01b03198216635b5e139f60e01b145b806103e057506301ffc9a760e01b6001600160e01b03198316145b92915050565b60605f80546103f490611d3d565b80601f016020809104026020016040519081016040528092919081815260200182805461042090611d3d565b801561046b5780601f106104425761010080835404028352916020019161046b565b820191905f5260205f20905b81548152906001019060200180831161044e57829003601f168201915b5050505050905090565b5f61047f82610f3a565b505f828152600460205260409020546001600160a01b03166103e0565b6104a7828233610f72565b5050565b5f828152600260205260409020546060906001600160a01b03166104ea5760405162461bcd60e51b81526004016104e190611d75565b60405180910390fd5b5f8381526009602090815260408083206001600160a01b03861684529091529020805461051690611d3d565b80601f016020809104026020016040519081016040528092919081815260200182805461054290611d3d565b801561058d5780601f106105645761010080835404028352916020019161058d565b820191905f5260205f20905b81548152906001019060200180831161057057829003601f168201915b5050505050905092915050565b6001600160a01b0382166105c357604051633250574960e11b81525f60048201526024016104e1565b5f6105cf838333610f7f565b9050836001600160a01b0316816001600160a01b03161461061d576040516364283d7b60e01b81526001600160a01b03808616600483015260248201849052821660448201526064016104e1565b50505050565b61063d83838360405180602001604052805f815250610bc1565b505050565b5f6103e082610f3a565b5f6001600160a01b038216610676576040516322718ad960e21b81525f60048201526024016104e1565b506001600160a01b03165f9081526003602052604090205490565b610699611071565b6106a25f61109e565b565b6106ac6110ef565b896001600160a01b03166106bf89610642565b6001600160a01b03161461070d5760405162461bcd60e51b8152602060048201526015602482015274233937b69034b9903737ba103a34329037bbb732b960591b60448201526064016104e1565b610717338961111d565b6107545760405162461bcd60e51b815260206004820152600e60248201526d139bdd08185d5d1a1bdc9a5e995960921b60448201526064016104e1565b6001600160a01b0389166107aa5760405162461bcd60e51b815260206004820152601f60248201527f43616e6e6f74207472616e7366657220746f207a65726f20616464726573730060448201526064016104e1565b600a54604051632ae132ff60e11b81526001600160a01b03909116906355c265fe906107dc9085908590600401611dcb565b602060405180830381865afa1580156107f7573d5f5f3e3d5ffd5b505050506040513d601f19601f8201168201806040525081019061081b9190611dde565b61085e5760405162461bcd60e51b815260206004820152601460248201527324b73b30b634b21037b930b1b63290383937b7b360611b60448201526064016104e1565b5f888152600760205260409020610876878983611e3d565b505f888152600860209081526040808320889055600982528083206001600160a01b038d16845290915290206108ad848683611e3d565b505f8881526009602090815260408083206001600160a01b038e16845290915281206108d891611815565b6108e38a8a8a611177565b886001600160a01b03168a6001600160a01b0316897ffbf9899067814e1901c9c3debe15c3e0740ed1dabcd34d41ce49b20f0603c07c8860405161092991815260200190565b60405180910390a461095a60017f9b779b17422d0df92223018b32b4d1fa46e071723d6817e2486d003becc55f0055565b50505050505050505050565b61096e611071565b6001600160a01b0381166109bc5760405162461bcd60e51b81526020600482015260156024820152744f7261636c652063616e6e6f74206265207a65726f60581b60448201526064016104e1565b600a80546001600160a01b038381166001600160a01b0319831681179093556040519116919082907f078c3b417dadf69374a59793b829c52001247130433427049317bde56607b1b7905f90a35050565b33610a1785610642565b6001600160a01b031614610a595760405162461bcd60e51b81526020600482015260096024820152682737ba1037bbb732b960b91b60448201526064016104e1565b5f8481526009602090815260408083206001600160a01b03871684529091529020610a85828483611e3d565b506040516001600160a01b0384169085907f6b759ed2b6cfe980ab7df296b16f139dd2d334802653e3a3d396153450b9cff1905f90a350505050565b6060600180546103f490611d3d565b6104a7338383611224565b5f6001600b54610aeb9190611f0a565b905090565b5f818152600260205260409020546060906001600160a01b0316610b265760405162461bcd60e51b81526004016104e190611d75565b5f8281526007602052604090208054610b3e90611d3d565b80601f0160208091040260200160405190810160405280929190818152602001828054610b6a90611d3d565b8015610bb55780601f10610b8c57610100808354040283529160200191610bb5565b820191905f5260205f20905b815481529060010190602001808311610b9857829003601f168201915b50505050509050919050565b610bcc84848461059a565b61061d33858585856112eb565b6060610be482610f3a565b505f610bfa60408051602081019091525f815290565b90505f815111610c185760405180602001604052805f815250610c43565b80610c2284611413565b604051602001610c33929190611f34565b6040516020818303038152906040525b9392505050565b33610c5485610642565b6001600160a01b031614610c965760405162461bcd60e51b81526020600482015260096024820152682737ba1037bbb732b960b91b60448201526064016104e1565b81610ccf5760405162461bcd60e51b8152602060048201526009602482015268456d7074792055524960b81b60448201526064016104e1565b5f848152600760205260409020610ce7838583611e3d565b505f84815260086020526040908190208290555184907f2008925f42ab11fa5cd381263b14f030c6a6c2e7f64aa1cad00c6b4bf15c4ac790610d2e90869086908690611f48565b60405180910390a250505050565b6001600160a01b039182165f90815260056020908152604080832093909416825291909152205460ff1690565b610d71611071565b6001600160a01b038116610d9a57604051631e4fbdf760e01b81525f60048201526024016104e1565b610da38161109e565b50565b5f818152600260205260408120546001600160a01b0316610dd95760405162461bcd60e51b81526004016104e190611d75565b505f9081526008602052604090205490565b5f6001600160a01b038716610e425760405162461bcd60e51b815260206004820152601b60248201527f43616e6e6f74206d696e7420746f207a65726f2061646472657373000000000060448201526064016104e1565b84610e7b5760405162461bcd60e51b8152602060048201526009602482015268456d7074792055524960b81b60448201526064016104e1565b600b80545f9182610e8b83611f6b565b919050559050610e9b88826114a2565b5f818152600760205260409020610eb3878983611e3d565b505f818152600860209081526040808320889055600982528083206001600160a01b038c1684529091529020610eea848683611e3d565b50876001600160a01b0316817faeed4db907e40d6d68f36f70d41113f33c9b518a29d30b2921c15e4c0085d6ad8989604051610f27929190611dcb565b60405180910390a3979650505050505050565b5f818152600260205260408120546001600160a01b0316806103e057604051637e27328960e01b8152600481018490526024016104e1565b61063d83838360016114bb565b5f828152600260205260408120546001600160a01b0390811690831615610fab57610fab8184866115bf565b6001600160a01b03811615610fe557610fc65f855f5f6114bb565b6001600160a01b0381165f90815260036020526040902080545f190190555b6001600160a01b03851615611013576001600160a01b0385165f908152600360205260409020805460010190555b5f8481526002602052604080822080546001600160a01b0319166001600160a01b0389811691821790925591518793918516917fddf252ad1be2c89b69c2b068fc378daa952ba7f163c4a11628f55a4df523b3ef91a4949350505050565b6006546001600160a01b031633146106a25760405163118cdaa760e01b81523360048201526024016104e1565b600680546001600160a01b038381166001600160a01b0319831681179093556040519116919082907f8be0079c531659141344cd1fd0a4f28419497f9722a3daafe3b4186f6b6457e0905f90a35050565b6110f7611623565b60027f9b779b17422d0df92223018b32b4d1fa46e071723d6817e2486d003becc55f0055565b5f818152600260205260408120546001600160a01b0390811690841681148061114b575061114b8185610d3c565b8061116f5750836001600160a01b031661116484610475565b6001600160a01b0316145b949350505050565b6001600160a01b0382166111a057604051633250574960e11b81525f60048201526024016104e1565b5f6111ac83835f610f7f565b90506001600160a01b0381166111d857604051637e27328960e01b8152600481018390526024016104e1565b836001600160a01b0316816001600160a01b03161461061d576040516364283d7b60e01b81526001600160a01b03808616600483015260248201849052821660448201526064016104e1565b6001600160a01b03831661124d5760405163a9fbf51f60e01b81525f60048201526024016104e1565b6001600160a01b03821661127f57604051630b61174360e31b81526001600160a01b03831660048201526024016104e1565b6001600160a01b038381165f81815260056020908152604080832094871680845294825291829020805460ff191686151590811790915591519182527f17307eab39ab6107e8899845ad3d59bd9653f200f220920489ca2b5937696c31910160405180910390a3505050565b6001600160a01b0383163b1561140c57604051630a85bd0160e11b81526001600160a01b0384169063150b7a029061132d908890889087908790600401611f83565b6020604051808303815f875af1925050508015611367575060408051601f3d908101601f1916820190925261136491810190611fbf565b60015b6113ce573d808015611394576040519150601f19603f3d011682016040523d82523d5f602084013e611399565b606091505b5080515f036113c657604051633250574960e11b81526001600160a01b03851660048201526024016104e1565b805160208201fd5b6001600160e01b03198116630a85bd0160e11b1461140a57604051633250574960e11b81526001600160a01b03851660048201526024016104e1565b505b5050505050565b60605f61141f83611665565b60010190505f816001600160401b0381111561143d5761143d611b52565b6040519080825280601f01601f191660200182016040528015611467576020820181803683370190505b5090508181016020015b5f19016f181899199a1a9b1b9c1cb0b131b232b360811b600a86061a8153600a850494508461147157509392505050565b6104a7828260405180602001604052805f81525061173c565b80806114cf57506001600160a01b03821615155b15611590575f6114de84610f3a565b90506001600160a01b0383161580159061150a5750826001600160a01b0316816001600160a01b031614155b801561151d575061151b8184610d3c565b155b156115465760405163a9fbf51f60e01b81526001600160a01b03841660048201526024016104e1565b811561158e5783856001600160a01b0316826001600160a01b03167f8c5be1e5ebec7d5bd14f71427d1e84f3dd0314c0f7b2291e5b200ac8c7c3b92560405160405180910390a45b505b50505f90815260046020526040902080546001600160a01b0319166001600160a01b0392909216919091179055565b6115ca838383611753565b61063d576001600160a01b0383166115f857604051637e27328960e01b8152600481018290526024016104e1565b60405163177e802f60e01b81526001600160a01b0383166004820152602481018290526044016104e1565b7f9b779b17422d0df92223018b32b4d1fa46e071723d6817e2486d003becc55f00546002036106a257604051633ee5aeb560e01b815260040160405180910390fd5b5f8072184f03e93ff9f4daa797ed6e38ed64bf6a1f0160401b83106116a35772184f03e93ff9f4daa797ed6e38ed64bf6a1f0160401b830492506040015b6d04ee2d6d415b85acef810000000083106116cf576d04ee2d6d415b85acef8100000000830492506020015b662386f26fc1000083106116ed57662386f26fc10000830492506010015b6305f5e1008310611705576305f5e100830492506008015b612710831061171957612710830492506004015b6064831061172b576064830492506002015b600a83106103e05760010192915050565b61174683836117b4565b61063d335f8585856112eb565b5f6001600160a01b0383161580159061116f5750826001600160a01b0316846001600160a01b0316148061178c575061178c8484610d3c565b8061116f5750505f908152600460205260409020546001600160a01b03908116911614919050565b6001600160a01b0382166117dd57604051633250574960e11b81525f60048201526024016104e1565b5f6117e983835f610f7f565b90506001600160a01b0381161561063d576040516339e3563760e11b81525f60048201526024016104e1565b50805461182190611d3d565b5f825580601f10611830575050565b601f0160209004905f5260205f2090810190610da391905b8082111561185b575f8155600101611848565b5090565b6001600160e01b031981168114610da3575f5ffd5b5f60208284031215611884575f5ffd5b8135610c438161185f565b5f81518084528060208401602086015e5f602082860101526020601f19601f83011685010191505092915050565b602081525f610c43602083018461188f565b5f602082840312156118df575f5ffd5b5035919050565b80356001600160a01b03811681146118fc575f5ffd5b919050565b5f5f60408385031215611912575f5ffd5b61191b836118e6565b946020939093013593505050565b5f5f6040838503121561193a575f5ffd5b8235915061194a602084016118e6565b90509250929050565b5f5f5f60608486031215611965575f5ffd5b61196e846118e6565b925061197c602085016118e6565b929592945050506040919091013590565b5f6020828403121561199d575f5ffd5b610c43826118e6565b5f5f83601f8401126119b6575f5ffd5b5081356001600160401b038111156119cc575f5ffd5b6020830191508360208285010111156119e3575f5ffd5b9250929050565b5f5f5f5f5f5f5f5f5f5f60e08b8d031215611a03575f5ffd5b611a0c8b6118e6565b9950611a1a60208c016118e6565b985060408b0135975060608b01356001600160401b03811115611a3b575f5ffd5b611a478d828e016119a6565b90985096505060808b0135945060a08b01356001600160401b03811115611a6c575f5ffd5b611a788d828e016119a6565b90955093505060c08b01356001600160401b03811115611a96575f5ffd5b611aa28d828e016119a6565b915080935050809150509295989b9194979a5092959850565b5f5f5f5f60608587031215611ace575f5ffd5b84359350611ade602086016118e6565b925060408501356001600160401b03811115611af8575f5ffd5b611b04878288016119a6565b95989497509550505050565b8015158114610da3575f5ffd5b5f5f60408385031215611b2e575f5ffd5b611b37836118e6565b91506020830135611b4781611b10565b809150509250929050565b634e487b7160e01b5f52604160045260245ffd5b5f5f5f5f60808587031215611b79575f5ffd5b611b82856118e6565b9350611b90602086016118e6565b92506040850135915060608501356001600160401b03811115611bb1575f5ffd5b8501601f81018713611bc1575f5ffd5b80356001600160401b03811115611bda57611bda611b52565b604051601f8201601f19908116603f011681016001600160401b0381118282101715611c0857611c08611b52565b604052818152828201602001891015611c1f575f5ffd5b816020840160208301375f6020838301015280935050505092959194509250565b5f5f5f5f60608587031215611c53575f5ffd5b8435935060208501356001600160401b03811115611c6f575f5ffd5b611c7b878288016119a6565b9598909750949560400135949350505050565b5f5f60408385031215611c9f575f5ffd5b611ca8836118e6565b915061194a602084016118e6565b5f5f5f5f5f5f60808789031215611ccb575f5ffd5b611cd4876118e6565b955060208701356001600160401b03811115611cee575f5ffd5b611cfa89828a016119a6565b9096509450506040870135925060608701356001600160401b03811115611d1f575f5ffd5b611d2b89828a016119a6565b979a9699509497509295939492505050565b600181811c90821680611d5157607f821691505b602082108103611d6f57634e487b7160e01b5f52602260045260245ffd5b50919050565b602080825260149082015273151bdad95b88191bd95cc81b9bdd08195e1a5cdd60621b604082015260600190565b81835281816020850137505f828201602090810191909152601f909101601f19169091010190565b602081525f61116f602083018486611da3565b5f60208284031215611dee575f5ffd5b8151610c4381611b10565b601f82111561063d57805f5260205f20601f840160051c81016020851015611e1e5750805b601f840160051c820191505b8181101561140c575f8155600101611e2a565b6001600160401b03831115611e5457611e54611b52565b611e6883611e628354611d3d565b83611df9565b5f601f841160018114611e99575f8515611e825750838201355b5f19600387901b1c1916600186901b17835561140c565b5f83815260208120601f198716915b82811015611ec85786850135825560209485019460019092019101611ea8565b5086821015611ee4575f1960f88860031b161c19848701351681555b505060018560011b0183555050505050565b634e487b7160e01b5f52601160045260245ffd5b818103818111156103e0576103e0611ef6565b5f81518060208401855e5f93019283525090919050565b5f61116f611f428386611f1d565b84611f1d565b604081525f611f5b604083018587611da3565b9050826020830152949350505050565b5f60018201611f7c57611f7c611ef6565b5060010190565b6001600160a01b03858116825284166020820152604081018390526080606082018190525f90611fb59083018461188f565b9695505050505050565b5f60208284031215611fcf575f5ffd5b8151610c438161185f56fea264697066735822122002a18cff12daeb353d332dd03962de557431763d188b1e52a48280adea9659fd64736f6c634300081c0033",
  "linkReferences": {},
  "deployedLinkReferences": {}
}